{
  "contractName": "Exchange",
  "abi": [
    {
      "inputs": [
        {
          "internalType": "bool",
          "name": "_tradeEnabled",
          "type": "bool"
        }
      ],
      "stateMutability": "nonpayable",
      "type": "constructor"
    },
    {
      "anonymous": false,
      "inputs": [
        {
          "indexed": false,
          "internalType": "uint256",
          "name": "amount",
          "type": "uint256"
        }
      ],
      "name": "ExchangeLog",
      "type": "event"
    },
    {
      "inputs": [],
      "name": "owner",
      "outputs": [
        {
          "internalType": "address",
          "name": "",
          "type": "address"
        }
      ],
      "stateMutability": "view",
      "type": "function"
    },
    {
      "inputs": [],
      "name": "tradeEnabled",
      "outputs": [
        {
          "internalType": "bool",
          "name": "",
          "type": "bool"
        }
      ],
      "stateMutability": "view",
      "type": "function"
    },
    {
      "stateMutability": "payable",
      "type": "receive"
    },
    {
      "inputs": [],
      "name": "checkEthBalance",
      "outputs": [
        {
          "internalType": "uint256",
          "name": "",
          "type": "uint256"
        }
      ],
      "stateMutability": "view",
      "type": "function"
    },
    {
      "inputs": [],
      "name": "getSupportedTokens",
      "outputs": [
        {
          "internalType": "address[]",
          "name": "",
          "type": "address[]"
        }
      ],
      "stateMutability": "view",
      "type": "function"
    },
    {
      "inputs": [
        {
          "internalType": "address",
          "name": "srcToken",
          "type": "address"
        },
        {
          "internalType": "address",
          "name": "destToken",
          "type": "address"
        },
        {
          "internalType": "uint256",
          "name": "amount",
          "type": "uint256"
        }
      ],
      "name": "getExchangeRate",
      "outputs": [
        {
          "internalType": "uint256",
          "name": "",
          "type": "uint256"
        }
      ],
      "stateMutability": "view",
      "type": "function"
    },
    {
      "inputs": [
        {
          "internalType": "address",
          "name": "srcAddress",
          "type": "address"
        },
        {
          "internalType": "address",
          "name": "destAddress",
          "type": "address"
        },
        {
          "internalType": "uint256",
          "name": "amount",
          "type": "uint256"
        }
      ],
      "name": "exchange",
      "outputs": [
        {
          "internalType": "uint256",
          "name": "",
          "type": "uint256"
        }
      ],
      "stateMutability": "nonpayable",
      "type": "function"
    },
    {
      "inputs": [
        {
          "internalType": "address",
          "name": "srcAddress",
          "type": "address"
        }
      ],
      "name": "buyToken",
      "outputs": [],
      "stateMutability": "payable",
      "type": "function"
    },
    {
      "inputs": [
        {
          "internalType": "address",
          "name": "destAddress",
          "type": "address"
        }
      ],
      "name": "exchangeEthToToken",
      "outputs": [
        {
          "internalType": "uint256",
          "name": "",
          "type": "uint256"
        }
      ],
      "stateMutability": "payable",
      "type": "function"
    },
    {
      "inputs": [
        {
          "internalType": "address",
          "name": "srcAddress",
          "type": "address"
        },
        {
          "internalType": "uint256",
          "name": "amount",
          "type": "uint256"
        }
      ],
      "name": "exchangeTokenToEth",
      "outputs": [
        {
          "internalType": "uint256",
          "name": "",
          "type": "uint256"
        }
      ],
      "stateMutability": "nonpayable",
      "type": "function"
    },
    {
      "inputs": [
        {
          "internalType": "contract Reserve",
          "name": "reserve",
          "type": "address"
        }
      ],
      "name": "addReserve",
      "outputs": [
        {
          "internalType": "bool",
          "name": "",
          "type": "bool"
        }
      ],
      "stateMutability": "nonpayable",
      "type": "function"
    },
    {
      "inputs": [
        {
          "internalType": "address",
          "name": "tokenAddress",
          "type": "address"
        }
      ],
      "name": "removeReserve",
      "outputs": [
        {
          "internalType": "bool",
          "name": "",
          "type": "bool"
        }
      ],
      "stateMutability": "nonpayable",
      "type": "function"
    }
  ],
  "bytecode": "0x60806040523480156200001157600080fd5b5060405162003151380380620031518339818101604052810190620000379190620000b0565b33600460006101000a81548173ffffffffffffffffffffffffffffffffffffffff021916908373ffffffffffffffffffffffffffffffffffffffff16021790555080600460146101000a81548160ff0219169083151502179055505062000102565b600081519050620000aa81620000e8565b92915050565b600060208284031215620000c357600080fd5b6000620000d38482850162000099565b91505092915050565b60008115159050919050565b620000f381620000dc565b8114620000ff57600080fd5b50565b61303f80620001126000396000f3fe6080604052600436106100a05760003560e01c8063969e375611610064578063969e37561461019d578063d3c7c2c7146101da578063d621e81314610205578063df0e81f814610230578063ec1ca0711461026d578063f5deae9314610298576100a7565b80636b441d8a146100ac5780637e72fb52146100e957806380436fe0146101055780638da5cb5b14610142578063915db34e1461016d576100a7565b366100a757005b600080fd5b3480156100b857600080fd5b506100d360048036038101906100ce919061242c565b6102d5565b6040516100e09190612be5565b60405180910390f35b61010360048036038101906100fe9190612403565b610575565b005b34801561011157600080fd5b5061012c60048036038101906101279190612403565b610724565b6040516101399190612aaa565b60405180910390f35b34801561014e57600080fd5b506101576108b0565b60405161016491906129e4565b60405180910390f35b61018760048036038101906101829190612403565b6108d6565b6040516101949190612be5565b60405180910390f35b3480156101a957600080fd5b506101c460048036038101906101bf919061242c565b610ba2565b6040516101d19190612be5565b60405180910390f35b3480156101e657600080fd5b506101ef610fb9565b6040516101fc9190612a88565b60405180910390f35b34801561021157600080fd5b5061021a611047565b6040516102279190612aaa565b60405180910390f35b34801561023c57600080fd5b506102576004803603810190610252919061247b565b61105a565b6040516102649190612be5565b60405180910390f35b34801561027957600080fd5b506102826114c0565b60405161028f9190612be5565b60405180910390f35b3480156102a457600080fd5b506102bf60048036038101906102ba91906124e0565b6114df565b6040516102cc9190612aaa565b60405180910390f35b6000806001905060006001905060008573ffffffffffffffffffffffffffffffffffffffff168773ffffffffffffffffffffffffffffffffffffffff16141561032057849050610568565b8673ffffffffffffffffffffffffffffffffffffffff16600073ffffffffffffffffffffffffffffffffffffffff1614610445576000808873ffffffffffffffffffffffffffffffffffffffff1673ffffffffffffffffffffffffffffffffffffffff16815260200190815260200160002060009054906101000a900473ffffffffffffffffffffffffffffffffffffffff1673ffffffffffffffffffffffffffffffffffffffff16636217229b6040518163ffffffff1660e01b815260040160206040518083038186803b1580156103f857600080fd5b505afa15801561040c573d6000803e3d6000fd5b505050506040513d601f19601f820116820180604052508101906104309190612573565b9250828561043e9190612d01565b9050610567565b8573ffffffffffffffffffffffffffffffffffffffff16600073ffffffffffffffffffffffffffffffffffffffff1614610566576000808773ffffffffffffffffffffffffffffffffffffffff1673ffffffffffffffffffffffffffffffffffffffff16815260200190815260200160002060009054906101000a900473ffffffffffffffffffffffffffffffffffffffff1673ffffffffffffffffffffffffffffffffffffffff1663fc37987b6040518163ffffffff1660e01b815260040160206040518083038186803b15801561051d57600080fd5b505afa158015610531573d6000803e3d6000fd5b505050506040513d601f19601f820116820180604052508101906105559190612573565b915081856105639190612d32565b90505b5b5b8093505050509392505050565b600460009054906101000a900473ffffffffffffffffffffffffffffffffffffffff1673ffffffffffffffffffffffffffffffffffffffff163373ffffffffffffffffffffffffffffffffffffffff16146105cf57600080fd5b7ecd5943a62eb34f939066a29b325bd91d96b5bd39b44afbe0c868970029d073346040516105fd9190612be5565b60405180910390a17ecd5943a62eb34f939066a29b325bd91d96b5bd39b44afbe0c868970029d073346040516106339190612be5565b60405180910390a160008060008373ffffffffffffffffffffffffffffffffffffffff1673ffffffffffffffffffffffffffffffffffffffff16815260200190815260200160002060009054906101000a900473ffffffffffffffffffffffffffffffffffffffff1690508073ffffffffffffffffffffffffffffffffffffffff1663a6f2ae3a346040518263ffffffff1660e01b81526004016020604051808303818588803b1580156106e657600080fd5b505af11580156106fa573d6000803e3d6000fd5b50505050506040513d601f19601f8201168201806040525081019061071f91906124b7565b505050565b6000600460009054906101000a900473ffffffffffffffffffffffffffffffffffffffff1673ffffffffffffffffffffffffffffffffffffffff163373ffffffffffffffffffffffffffffffffffffffff161461078057600080fd5b60005b600180549050811015610845578273ffffffffffffffffffffffffffffffffffffffff16600182815481106107e1577f4e487b7100000000000000000000000000000000000000000000000000000000600052603260045260246000fd5b9060005260206000200160009054906101000a900473ffffffffffffffffffffffffffffffffffffffff1673ffffffffffffffffffffffffffffffffffffffff1614156108325761083181611b34565b5b808061083d90612e91565b915050610783565b506000808373ffffffffffffffffffffffffffffffffffffffff1673ffffffffffffffffffffffffffffffffffffffff16815260200190815260200160002060006101000a81549073ffffffffffffffffffffffffffffffffffffffff021916905560019050919050565b600460009054906101000a900473ffffffffffffffffffffffffffffffffffffffff1681565b6000806000808473ffffffffffffffffffffffffffffffffffffffff1673ffffffffffffffffffffffffffffffffffffffff16815260200190815260200160002060009054906101000a900473ffffffffffffffffffffffffffffffffffffffff16905060008173ffffffffffffffffffffffffffffffffffffffff1663fc0c546a6040518163ffffffff1660e01b815260040160206040518083038186803b15801561098257600080fd5b505afa158015610996573d6000803e3d6000fd5b505050506040513d601f19601f820116820180604052508101906109ba9190612509565b90508173ffffffffffffffffffffffffffffffffffffffff1663a6f2ae3a346040518263ffffffff1660e01b81526004016020604051808303818588803b158015610a0457600080fd5b505af1158015610a18573d6000803e3d6000fd5b50505050506040513d601f19601f82011682018060405250810190610a3d91906124b7565b610a7c576040517f08c379a0000000000000000000000000000000000000000000000000000000008152600401610a7390612b05565b60405180910390fd5b60008273ffffffffffffffffffffffffffffffffffffffff1663fc37987b6040518163ffffffff1660e01b815260040160206040518083038186803b158015610ac457600080fd5b505afa158015610ad8573d6000803e3d6000fd5b505050506040513d601f19601f82011682018060405250810190610afc9190612573565b34610b079190612d32565b90508173ffffffffffffffffffffffffffffffffffffffff1663a9059cbb33836040518363ffffffff1660e01b8152600401610b44929190612a5f565b602060405180830381600087803b158015610b5e57600080fd5b505af1158015610b72573d6000803e3d6000fd5b505050506040513d601f19601f82011682018060405250810190610b9691906124b7565b50809350505050919050565b6000806000808673ffffffffffffffffffffffffffffffffffffffff1673ffffffffffffffffffffffffffffffffffffffff16815260200190815260200160002060009054906101000a900473ffffffffffffffffffffffffffffffffffffffff16905060008060008673ffffffffffffffffffffffffffffffffffffffff1673ffffffffffffffffffffffffffffffffffffffff16815260200190815260200160002060009054906101000a900473ffffffffffffffffffffffffffffffffffffffff16905060008273ffffffffffffffffffffffffffffffffffffffff1663fc0c546a6040518163ffffffff1660e01b815260040160206040518083038186803b158015610cb157600080fd5b505afa158015610cc5573d6000803e3d6000fd5b505050506040513d601f19601f82011682018060405250810190610ce99190612509565b905060008273ffffffffffffffffffffffffffffffffffffffff1663fc0c546a6040518163ffffffff1660e01b815260040160206040518083038186803b158015610d3357600080fd5b505afa158015610d47573d6000803e3d6000fd5b505050506040513d601f19601f82011682018060405250810190610d6b9190612509565b905060008611610db0576040517f08c379a0000000000000000000000000000000000000000000000000000000008152600401610da790612b25565b60405180910390fd5b858273ffffffffffffffffffffffffffffffffffffffff1663dd62ed3e33306040518363ffffffff1660e01b8152600401610dec9291906129ff565b60206040518083038186803b158015610e0457600080fd5b505afa158015610e18573d6000803e3d6000fd5b505050506040513d601f19601f82011682018060405250810190610e3c9190612573565b1015610e7d576040517f08c379a0000000000000000000000000000000000000000000000000000000008152600401610e7490612ba5565b60405180910390fd5b6000610e8a8989896102d5565b90508273ffffffffffffffffffffffffffffffffffffffff166323b872dd33308a6040518463ffffffff1660e01b8152600401610ec993929190612a28565b602060405180830381600087803b158015610ee357600080fd5b505af1158015610ef7573d6000803e3d6000fd5b505050506040513d601f19601f82011682018060405250810190610f1b91906124b7565b508173ffffffffffffffffffffffffffffffffffffffff1663a9059cbb33836040518363ffffffff1660e01b8152600401610f57929190612a5f565b602060405180830381600087803b158015610f7157600080fd5b505af1158015610f85573d6000803e3d6000fd5b505050506040513d601f19601f82011682018060405250810190610fa991906124b7565b5080955050505050509392505050565b6060600180548060200260200160405190810160405280929190818152602001828054801561103d57602002820191906000526020600020905b8160009054906101000a900473ffffffffffffffffffffffffffffffffffffffff1673ffffffffffffffffffffffffffffffffffffffff1681526020019060010190808311610ff3575b5050505050905090565b600460149054906101000a900460ff1681565b600080821161109e576040517f08c379a000000000000000000000000000000000000000000000000000000000815260040161109590612b45565b60405180910390fd5b60008060008573ffffffffffffffffffffffffffffffffffffffff1673ffffffffffffffffffffffffffffffffffffffff16815260200190815260200160002060009054906101000a900473ffffffffffffffffffffffffffffffffffffffff16905060008173ffffffffffffffffffffffffffffffffffffffff1663fc0c546a6040518163ffffffff1660e01b815260040160206040518083038186803b15801561114957600080fd5b505afa15801561115d573d6000803e3d6000fd5b505050506040513d601f19601f820116820180604052508101906111819190612509565b90508073ffffffffffffffffffffffffffffffffffffffff166323b872dd3330876040518463ffffffff1660e01b81526004016111c093929190612a28565b602060405180830381600087803b1580156111da57600080fd5b505af11580156111ee573d6000803e3d6000fd5b505050506040513d601f19601f8201168201806040525081019061121291906124b7565b508073ffffffffffffffffffffffffffffffffffffffff1663095ea7b36000808873ffffffffffffffffffffffffffffffffffffffff1673ffffffffffffffffffffffffffffffffffffffff16815260200190815260200160002060009054906101000a900473ffffffffffffffffffffffffffffffffffffffff16670de0b6b3a7640000876112a29190612d32565b6040518363ffffffff1660e01b81526004016112bf929190612a5f565b602060405180830381600087803b1580156112d957600080fd5b505af11580156112ed573d6000803e3d6000fd5b505050506040513d601f19601f8201168201806040525081019061131191906124b7565b5060008273ffffffffffffffffffffffffffffffffffffffff1663e4849b32866040518263ffffffff1660e01b815260040161134d9190612be5565b602060405180830381600087803b15801561136757600080fd5b505af115801561137b573d6000803e3d6000fd5b505050506040513d601f19601f8201168201806040525081019061139f91906124b7565b9050806113e1576040517f08c379a00000000000000000000000000000000000000000000000000000000081526004016113d890612ac5565b60405180910390fd5b600061146a868573ffffffffffffffffffffffffffffffffffffffff16636217229b6040518163ffffffff1660e01b815260040160206040518083038186803b15801561142d57600080fd5b505afa158015611441573d6000803e3d6000fd5b505050506040513d601f19601f820116820180604052508101906114659190612573565b611ecc565b90503373ffffffffffffffffffffffffffffffffffffffff166108fc829081150290604051600060405180830381858888f193505050501580156114b2573d6000803e3d6000fd5b508094505050505092915050565b60003073ffffffffffffffffffffffffffffffffffffffff1631905090565b6000600460009054906101000a900473ffffffffffffffffffffffffffffffffffffffff1673ffffffffffffffffffffffffffffffffffffffff163373ffffffffffffffffffffffffffffffffffffffff161461153b57600080fd5b60008273ffffffffffffffffffffffffffffffffffffffff1663fc0c546a6040518163ffffffff1660e01b815260040160206040518083038186803b15801561158357600080fd5b505afa158015611597573d6000803e3d6000fd5b505050506040513d601f19601f820116820180604052508101906115bb9190612509565b9050600081905060008273ffffffffffffffffffffffffffffffffffffffff166306fdde036040518163ffffffff1660e01b815260040160006040518083038186803b15801561160a57600080fd5b505afa15801561161e573d6000803e3d6000fd5b505050506040513d6000823e3d601f19601f820116820180604052508101906116479190612532565b905060008373ffffffffffffffffffffffffffffffffffffffff166395d89b416040518163ffffffff1660e01b815260040160006040518083038186803b15801561169157600080fd5b505afa1580156116a5573d6000803e3d6000fd5b505050506040513d6000823e3d601f19601f820116820180604052508101906116ce9190612532565b905060005b6001805490508110156119ce5760006001828154811061171c577f4e487b7100000000000000000000000000000000000000000000000000000000600052603260045260246000fd5b9060005260206000200160009054906101000a900473ffffffffffffffffffffffffffffffffffffffff1690508473ffffffffffffffffffffffffffffffffffffffff166001838154811061179a577f4e487b7100000000000000000000000000000000000000000000000000000000600052603260045260246000fd5b9060005260206000200160009054906101000a900473ffffffffffffffffffffffffffffffffffffffff1673ffffffffffffffffffffffffffffffffffffffff16141561181c576040517f08c379a000000000000000000000000000000000000000000000000000000000815260040161181390612b85565b60405180910390fd5b60006118aa858373ffffffffffffffffffffffffffffffffffffffff166306fdde036040518163ffffffff1660e01b815260040160006040518083038186803b15801561186857600080fd5b505afa15801561187c573d6000803e3d6000fd5b505050506040513d6000823e3d601f19601f820116820180604052508101906118a59190612532565b611f39565b14156118eb576040517f08c379a00000000000000000000000000000000000000000000000000000000081526004016118e290612b65565b60405180910390fd5b6000611979858373ffffffffffffffffffffffffffffffffffffffff166395d89b416040518163ffffffff1660e01b815260040160006040518083038186803b15801561193757600080fd5b505afa15801561194b573d6000803e3d6000fd5b505050506040513d6000823e3d601f19601f820116820180604052508101906119749190612532565b611f39565b14156119ba576040517f08c379a00000000000000000000000000000000000000000000000000000000081526004016119b190612bc5565b60405180910390fd5b5080806119c690612e91565b9150506116d3565b50856000808573ffffffffffffffffffffffffffffffffffffffff1673ffffffffffffffffffffffffffffffffffffffff16815260200190815260200160002060006101000a81548173ffffffffffffffffffffffffffffffffffffffff021916908373ffffffffffffffffffffffffffffffffffffffff1602179055506001839080600181540180825580915050600190039060005260206000200160009091909190916101000a81548173ffffffffffffffffffffffffffffffffffffffff021916908373ffffffffffffffffffffffffffffffffffffffff160217905550600382908060018154018082558091505060019003906000526020600020016000909190919091509080519060200190611aea9291906121ad565b50600281908060018154018082558091505060019003906000526020600020016000909190919091509080519060200190611b269291906121ad565b506001945050505050919050565b60008190505b60018080549050611b4b9190612d8c565b811015611daf5760018082611b609190612cab565b81548110611b97577f4e487b7100000000000000000000000000000000000000000000000000000000600052603260045260246000fd5b9060005260206000200160009054906101000a900473ffffffffffffffffffffffffffffffffffffffff1660018281548110611bfc577f4e487b7100000000000000000000000000000000000000000000000000000000600052603260045260246000fd5b9060005260206000200160006101000a81548173ffffffffffffffffffffffffffffffffffffffff021916908373ffffffffffffffffffffffffffffffffffffffff1602179055506003600182611c539190612cab565b81548110611c8a577f4e487b7100000000000000000000000000000000000000000000000000000000600052603260045260246000fd5b9060005260206000200160038281548110611cce577f4e487b7100000000000000000000000000000000000000000000000000000000600052603260045260246000fd5b90600052602060002001908054611ce490612e5f565b611cef929190612233565b506002600182611cff9190612cab565b81548110611d36577f4e487b7100000000000000000000000000000000000000000000000000000000600052603260045260246000fd5b9060005260206000200160028281548110611d7a577f4e487b7100000000000000000000000000000000000000000000000000000000600052603260045260246000fd5b90600052602060002001908054611d9090612e5f565b611d9b929190612233565b508080611da790612e91565b915050611b3a565b506001805480611de8577f4e487b7100000000000000000000000000000000000000000000000000000000600052603160045260246000fd5b6001900381819060005260206000200160006101000a81549073ffffffffffffffffffffffffffffffffffffffff021916905590556003805480611e55577f4e487b7100000000000000000000000000000000000000000000000000000000600052603160045260246000fd5b600190038181906000526020600020016000611e7191906122c0565b90556002805480611eab577f4e487b7100000000000000000000000000000000000000000000000000000000600052603160045260246000fd5b600190038181906000526020600020016000611ec791906122c0565b905550565b600080821480611ef4575082828385611ee59190612d32565b925082611ef29190612d01565b145b611f33576040517f08c379a0000000000000000000000000000000000000000000000000000000008152600401611f2a90612ae5565b60405180910390fd5b92915050565b60008083905060008390506000825190508082511015611f5857815190505b60005b8181101561215357828181518110611f9c577f4e487b7100000000000000000000000000000000000000000000000000000000600052603260045260246000fd5b602001015160f81c60f81b7effffffffffffffffffffffffffffffffffffffffffffffffffffffffffffff1916848281518110612002577f4e487b7100000000000000000000000000000000000000000000000000000000600052603260045260246000fd5b602001015160f81c60f81b7effffffffffffffffffffffffffffffffffffffffffffffffffffffffffffff19161015612061577fffffffffffffffffffffffffffffffffffffffffffffffffffffffffffffffff9450505050506121a7565b82818151811061209a577f4e487b7100000000000000000000000000000000000000000000000000000000600052603260045260246000fd5b602001015160f81c60f81b7effffffffffffffffffffffffffffffffffffffffffffffffffffffffffffff1916848281518110612100577f4e487b7100000000000000000000000000000000000000000000000000000000600052603260045260246000fd5b602001015160f81c60f81b7effffffffffffffffffffffffffffffffffffffffffffffffffffffffffffff191611156121405760019450505050506121a7565b808061214b90612e91565b915050611f5b565b50815183511015612189577fffffffffffffffffffffffffffffffffffffffffffffffffffffffffffffffff93505050506121a7565b81518351111561219f57600193505050506121a7565b600093505050505b92915050565b8280546121b990612e5f565b90600052602060002090601f0160209004810192826121db5760008555612222565b82601f106121f457805160ff1916838001178555612222565b82800160010185558215612222579182015b82811115612221578251825591602001919060010190612206565b5b50905061222f9190612300565b5090565b82805461223f90612e5f565b90600052602060002090601f01602090048101928261226157600085556122af565b82601f1061227257805485556122af565b828001600101855582156122af57600052602060002091601f016020900482015b828111156122ae578254825591600101919060010190612293565b5b5090506122bc9190612300565b5090565b5080546122cc90612e5f565b6000825580601f106122de57506122fd565b601f0160209004906000526020600020908101906122fc9190612300565b5b50565b5b80821115612319576000816000905550600101612301565b5090565b600061233061232b84612c31565b612c00565b90508281526020810184848401111561234857600080fd5b612353848285612e2c565b509392505050565b60008135905061236a81612f96565b92915050565b60008151905061237f81612fad565b92915050565b60008135905061239481612fc4565b92915050565b6000815190506123a981612fdb565b92915050565b600082601f8301126123c057600080fd5b81516123d084826020860161231d565b91505092915050565b6000813590506123e881612ff2565b92915050565b6000815190506123fd81612ff2565b92915050565b60006020828403121561241557600080fd5b60006124238482850161235b565b91505092915050565b60008060006060848603121561244157600080fd5b600061244f8682870161235b565b93505060206124608682870161235b565b9250506040612471868287016123d9565b9150509250925092565b6000806040838503121561248e57600080fd5b600061249c8582860161235b565b92505060206124ad858286016123d9565b9150509250929050565b6000602082840312156124c957600080fd5b60006124d784828501612370565b91505092915050565b6000602082840312156124f257600080fd5b600061250084828501612385565b91505092915050565b60006020828403121561251b57600080fd5b60006125298482850161239a565b91505092915050565b60006020828403121561254457600080fd5b600082015167ffffffffffffffff81111561255e57600080fd5b61256a848285016123af565b91505092915050565b60006020828403121561258557600080fd5b6000612593848285016123ee565b91505092915050565b60006125a883836125b4565b60208301905092915050565b6125bd81612dc0565b82525050565b6125cc81612dc0565b82525050565b60006125dd82612c71565b6125e78185612c89565b93506125f283612c61565b8060005b8381101561262357815161260a888261259c565b975061261583612c7c565b9250506001810190506125f6565b5085935050505092915050565b61263981612dd2565b82525050565b600061264c602f83612c9a565b91507f45786368616e67655b65786368616e6765546f6b656e546f4574685d2066616960008301527f6c20746f2073656c6c20746f6b656e00000000000000000000000000000000006020830152604082019050919050565b60006126b2601483612c9a565b91507f64732d6d6174682d6d756c2d6f766572666c6f770000000000000000000000006000830152602082019050919050565b60006126f2603083612c9a565b91507f45786368616e67655b65786368616e6765457468546f546f6b656e5d2076616c60008301527f7565206973206d697373696e672e2e2e000000000000000000000000000000006020830152604082019050919050565b6000612758603883612c9a565b91507f45786368616e67655b65786368616e67655d3a205375626d697474656420616d60008301527f6f756e74206d7573742067726561746572207468616e203000000000000000006020830152604082019050919050565b60006127be603e83612c9a565b91507f45786368616e67655b65786368616e6765546f6b656e546f4574685d2074686560008301527f20616d6f756e74206d7573742062652067726561746572207468616e203000006020830152604082019050919050565b6000612824602983612c9a565b91507f45786368616e67655b616464526573657276655d206475706c6963617465207460008301527f6f6b656e206e616d6500000000000000000000000000000000000000000000006020830152604082019050919050565b600061288a602c83612c9a565b91507f45786368616e67655b616464526573657276655d206475706c6963617465207460008301527f6f6b656e206164647265737300000000000000000000000000000000000000006020830152604082019050919050565b60006128f0604f83612c9a565b91507f45786368616e67655b65786368616e67655d3a20546f74616c20616c6c6f776160008301527f6e6365206d7573742062652067726561746572207468616e206f72206571756160208301527f6c20746f2074686520616d6f756e7400000000000000000000000000000000006040830152606082019050919050565b600061297c602b83612c9a565b91507f45786368616e67655b616464526573657276655d206475706c6963617465207460008301527f6f6b656e2073796d626f6c0000000000000000000000000000000000000000006020830152604082019050919050565b6129de81612e22565b82525050565b60006020820190506129f960008301846125c3565b92915050565b6000604082019050612a1460008301856125c3565b612a2160208301846125c3565b9392505050565b6000606082019050612a3d60008301866125c3565b612a4a60208301856125c3565b612a5760408301846129d5565b949350505050565b6000604082019050612a7460008301856125c3565b612a8160208301846129d5565b9392505050565b60006020820190508181036000830152612aa281846125d2565b905092915050565b6000602082019050612abf6000830184612630565b92915050565b60006020820190508181036000830152612ade8161263f565b9050919050565b60006020820190508181036000830152612afe816126a5565b9050919050565b60006020820190508181036000830152612b1e816126e5565b9050919050565b60006020820190508181036000830152612b3e8161274b565b9050919050565b60006020820190508181036000830152612b5e816127b1565b9050919050565b60006020820190508181036000830152612b7e81612817565b9050919050565b60006020820190508181036000830152612b9e8161287d565b9050919050565b60006020820190508181036000830152612bbe816128e3565b9050919050565b60006020820190508181036000830152612bde8161296f565b9050919050565b6000602082019050612bfa60008301846129d5565b92915050565b6000604051905081810181811067ffffffffffffffff82111715612c2757612c26612f67565b5b8060405250919050565b600067ffffffffffffffff821115612c4c57612c4b612f67565b5b601f19601f8301169050602081019050919050565b6000819050602082019050919050565b600081519050919050565b6000602082019050919050565b600082825260208201905092915050565b600082825260208201905092915050565b6000612cb682612e22565b9150612cc183612e22565b9250827fffffffffffffffffffffffffffffffffffffffffffffffffffffffffffffffff03821115612cf657612cf5612eda565b5b828201905092915050565b6000612d0c82612e22565b9150612d1783612e22565b925082612d2757612d26612f09565b5b828204905092915050565b6000612d3d82612e22565b9150612d4883612e22565b9250817fffffffffffffffffffffffffffffffffffffffffffffffffffffffffffffffff0483118215151615612d8157612d80612eda565b5b828202905092915050565b6000612d9782612e22565b9150612da283612e22565b925082821015612db557612db4612eda565b5b828203905092915050565b6000612dcb82612e02565b9050919050565b60008115159050919050565b6000612de982612dc0565b9050919050565b6000612dfb82612dc0565b9050919050565b600073ffffffffffffffffffffffffffffffffffffffff82169050919050565b6000819050919050565b60005b83811015612e4a578082015181840152602081019050612e2f565b83811115612e59576000848401525b50505050565b60006002820490506001821680612e7757607f821691505b60208210811415612e8b57612e8a612f38565b5b50919050565b6000612e9c82612e22565b91507fffffffffffffffffffffffffffffffffffffffffffffffffffffffffffffffff821415612ecf57612ece612eda565b5b600182019050919050565b7f4e487b7100000000000000000000000000000000000000000000000000000000600052601160045260246000fd5b7f4e487b7100000000000000000000000000000000000000000000000000000000600052601260045260246000fd5b7f4e487b7100000000000000000000000000000000000000000000000000000000600052602260045260246000fd5b7f4e487b7100000000000000000000000000000000000000000000000000000000600052604160045260246000fd5b612f9f81612dc0565b8114612faa57600080fd5b50565b612fb681612dd2565b8114612fc157600080fd5b50565b612fcd81612dde565b8114612fd857600080fd5b50565b612fe481612df0565b8114612fef57600080fd5b50565b612ffb81612e22565b811461300657600080fd5b5056fea2646970667358221220834d98f8f123388671bbccbc303a00fee087fac7ab4e7561f4eb6b069a77187a64736f6c63430008000033",
  "immutableReferences": {},
  "source": "pragma solidity ^0.8.0;\nimport \"./Reserve.sol\";\ncontract Exchange {\n    mapping(address => address) tokenToReserve;\n    address[] tokenAddresses;\n    string[] tokenSymbols;\n    string[] tokenNames;\n    address public owner;\n    bool public tradeEnabled;\n    event ExchangeLog(uint256 amount);\n\n    modifier onlyOwner() {\n        require(msg.sender == owner);\n        _;\n    }\n\n    constructor(bool _tradeEnabled) public {\n        owner = msg.sender;\n        tradeEnabled = _tradeEnabled;\n    }\n\n    receive() external payable {\n            \n    }\n\n    function checkEthBalance() public view returns(uint256) {\n        return (payable(address(this))).balance;\n    }\n\n\n    function getSupportedTokens() public view returns (address[] memory) {\n        return tokenAddresses;\n    }\n\n    function getExchangeRate(address srcToken, address destToken, uint256 amount) public view returns (uint256) {\n        uint srcRate = 1;\n        uint destRate = 1;\n        uint rate;\n        if (srcToken == destToken) {\n            rate = amount;\n        } else if (address(0) != srcToken) {\n            srcRate = Reserve(tokenToReserve[srcToken]).sellRate();\n            rate = amount / srcRate;\n        } else if (address(0) != destToken) {\n            destRate = Reserve(tokenToReserve[destToken]).buyRate();\n            rate = amount * destRate;\n        } \n        return rate;\n    }\n\n    function exchange(address srcAddress, address destAddress, uint256 amount) public returns (uint256) {\n        Reserve srcReserve = Reserve(tokenToReserve[srcAddress]);\n        Reserve desReserve = Reserve(tokenToReserve[destAddress]);\n        SimpleToken srcToken = srcReserve.token();\n        SimpleToken desToken = desReserve.token();\n\n        require(amount > 0, \"Exchange[exchange]: Submitted amount must greater than 0\");\n        require(srcToken.allowance(msg.sender, address(this)) >= amount, \"Exchange[exchange]: Total allowance must be greater than or equal to the amount\");\n\n        uint256 desAmount = getExchangeRate(srcAddress, destAddress, amount);\n        srcToken.transferFrom(msg.sender, address(this), amount);\n        desToken.transfer(msg.sender, desAmount);\n        return desAmount;\n    }\n\n\n    function buyToken(address srcAddress) public payable onlyOwner {\n        emit ExchangeLog(msg.value);\n        emit ExchangeLog(msg.value);\n        Reserve reserve = Reserve(tokenToReserve[srcAddress]);\n        reserve.buy{value: msg.value}();\n    }\n\n\n    function exchangeEthToToken(address destAddress) public payable returns (uint256) {\n        Reserve desReserve = Reserve(tokenToReserve[destAddress]);\n        SimpleToken desToken = desReserve.token();\n        require(desReserve.buy{value: msg.value}(), \"Exchange[exchangeEthToToken] value is missing...\");\n        uint256 totalAmount = msg.value * desReserve.buyRate();\n        desToken.transfer(msg.sender, totalAmount);\n        return totalAmount;\n    }\n\n    function exchangeTokenToEth(address srcAddress, uint256 amount) public returns (uint256) {\n        require(amount > 0, \"Exchange[exchangeTokenToEth] the amount must be greater than 0\");\n        Reserve srcReserve = Reserve(tokenToReserve[srcAddress]);\n        SimpleToken srcToken = srcReserve.token();\n        srcToken.transferFrom(msg.sender, address(this), amount);\n        srcToken.approve(tokenToReserve[srcAddress], amount * (1e18));\n        bool sold = srcReserve.sell(amount);\n        require (sold, \"Exchange[exchangeTokenToEth] fail to sell token\");\n        uint256 exchangeAmount = mul(amount, srcReserve.sellRate());\n        payable(msg.sender).transfer(exchangeAmount);\n        return exchangeAmount;\n    }\n\n\n    function addReserve(Reserve reserve) public onlyOwner returns (bool) {\n        SimpleToken token = reserve.token();\n        address tokenAddress = address(token);\n        string memory name = token.name();\n        string memory symbol = token.symbol();\n        for(uint idx = 0; idx < tokenAddresses.length; idx++) {\n            SimpleToken curToken = SimpleToken(tokenAddresses[idx]);\n            require(tokenAddresses[idx] != tokenAddress, \"Exchange[addReserve] duplicate token address\");\n            require(compare(name, curToken.name()) != 0, \"Exchange[addReserve] duplicate token name\");\n            require(compare(name, curToken.symbol()) != 0, \"Exchange[addReserve] duplicate token symbol\");\n        }\n        tokenToReserve[tokenAddress] = address(reserve);\n        tokenAddresses.push(tokenAddress);\n        tokenNames.push(name);\n        tokenSymbols.push(symbol);\n        return true;\n    }    \n\n    function removeReserve(address tokenAddress) public onlyOwner returns (bool) {\n        for(uint i = 0; i < tokenAddresses.length; i++) {\n            if (tokenAddresses[i] == tokenAddress) {\n                removeElement(i);\n            }\n        }\n        delete tokenToReserve[tokenAddress];\n        return true;\n    }\n\n    function removeElement(uint idx) private {\n        for(uint i = idx; i < tokenAddresses.length - 1; i++) {\n            tokenAddresses[i] = tokenAddresses[i + 1];\n            tokenNames[i] = tokenNames[i + 1];\n            tokenSymbols[i] = tokenSymbols[i + 1];\n        }\n        tokenAddresses.pop();\n        tokenNames.pop();\n        tokenSymbols.pop();\n    }\n\n    function compare(string memory _a, string memory _b) private pure returns (int) {\n        bytes memory a = bytes(_a);\n        bytes memory b = bytes(_b);\n        uint minLength = a.length;\n        if (b.length < minLength) minLength = b.length;\n        for (uint i = 0; i < minLength; i ++)\n            if (a[i] < b[i])\n                return -1;\n            else if (a[i] > b[i])\n                return 1;\n        if (a.length < b.length)\n            return -1;\n        else if (a.length > b.length)\n            return 1;\n        else\n            return 0;\n    }\n\n    function equal(string memory _a, string memory _b) private pure returns (bool) {\n        return compare(_a, _b) == 0;\n    }\n\n    function mul(uint256 x, uint256 y) internal pure returns (uint256 z) {\n        require(y == 0 || (z = x * y) / y == x, \"ds-math-mul-overflow\");\n    }\n\n}",
  "sourcePath": "C:\\Users\\ADMIN\\Dropbox\\My PC (LAPTOP-PBACICC3)\\Desktop\\Project\\contract\\Exchange.sol",
  "compiler": {
    "name": "solc",
    "version": "0.8.0+commit.c7dfd78e.Emscripten.clang"
  },
  "schemaVersion": "3.4.13",
  "updatedAt": "2023-04-25T16:52:42.715Z",
  "devdoc": {
    "kind": "dev",
    "methods": {},
    "version": 1
  },
  "userdoc": {
    "kind": "user",
    "methods": {},
    "version": 1
  }
}