{
  "contractName": "Reserve",
  "abi": [
    {
      "inputs": [
        {
          "internalType": "string",
          "name": "_name",
          "type": "string"
        },
        {
          "internalType": "string",
          "name": "_symbol",
          "type": "string"
        },
        {
          "internalType": "uint256",
          "name": "_buyRate",
          "type": "uint256"
        },
        {
          "internalType": "uint256",
          "name": "_sellRate",
          "type": "uint256"
        },
        {
          "internalType": "bool",
          "name": "_tradeEnabled",
          "type": "bool"
        }
      ],
      "stateMutability": "nonpayable",
      "type": "constructor"
    },
    {
      "anonymous": false,
      "inputs": [
        {
          "indexed": false,
          "internalType": "uint256",
          "name": "amount",
          "type": "uint256"
        }
      ],
      "name": "Bought",
      "type": "event"
    },
    {
      "anonymous": false,
      "inputs": [
        {
          "indexed": false,
          "internalType": "string",
          "name": "str",
          "type": "string"
        }
      ],
      "name": "LogString",
      "type": "event"
    },
    {
      "anonymous": false,
      "inputs": [
        {
          "indexed": false,
          "internalType": "uint256",
          "name": "num",
          "type": "uint256"
        }
      ],
      "name": "ReserveLog",
      "type": "event"
    },
    {
      "anonymous": false,
      "inputs": [
        {
          "indexed": false,
          "internalType": "uint256",
          "name": "amount",
          "type": "uint256"
        }
      ],
      "name": "Sold",
      "type": "event"
    },
    {
      "inputs": [],
      "name": "buyRate",
      "outputs": [
        {
          "internalType": "uint256",
          "name": "",
          "type": "uint256"
        }
      ],
      "stateMutability": "view",
      "type": "function"
    },
    {
      "inputs": [],
      "name": "isEnabled",
      "outputs": [
        {
          "internalType": "bool",
          "name": "",
          "type": "bool"
        }
      ],
      "stateMutability": "view",
      "type": "function"
    },
    {
      "inputs": [],
      "name": "owner",
      "outputs": [
        {
          "internalType": "address",
          "name": "",
          "type": "address"
        }
      ],
      "stateMutability": "view",
      "type": "function"
    },
    {
      "inputs": [],
      "name": "sellRate",
      "outputs": [
        {
          "internalType": "uint256",
          "name": "",
          "type": "uint256"
        }
      ],
      "stateMutability": "view",
      "type": "function"
    },
    {
      "inputs": [],
      "name": "token",
      "outputs": [
        {
          "internalType": "contract SimpleToken",
          "name": "",
          "type": "address"
        }
      ],
      "stateMutability": "view",
      "type": "function"
    },
    {
      "inputs": [],
      "name": "buy",
      "outputs": [
        {
          "internalType": "bool",
          "name": "",
          "type": "bool"
        }
      ],
      "stateMutability": "payable",
      "type": "function"
    },
    {
      "inputs": [
        {
          "internalType": "uint256",
          "name": "amount",
          "type": "uint256"
        }
      ],
      "name": "sell",
      "outputs": [
        {
          "internalType": "bool",
          "name": "",
          "type": "bool"
        }
      ],
      "stateMutability": "nonpayable",
      "type": "function"
    },
    {
      "inputs": [],
      "name": "getTokenAddress",
      "outputs": [
        {
          "internalType": "address",
          "name": "",
          "type": "address"
        }
      ],
      "stateMutability": "view",
      "type": "function"
    },
    {
      "inputs": [
        {
          "internalType": "uint256",
          "name": "rate",
          "type": "uint256"
        }
      ],
      "name": "setRate",
      "outputs": [],
      "stateMutability": "nonpayable",
      "type": "function"
    }
  ],
  "bytecode": "0x60806040523480156200001157600080fd5b50604051620027e8380380620027e88339818101604052810190620000379190620001d3565b336000806101000a81548173ffffffffffffffffffffffffffffffffffffffff021916908373ffffffffffffffffffffffffffffffffffffffff1602179055508484604051620000879062000125565b62000094929190620002c8565b604051809103906000f080158015620000b1573d6000803e3d6000fd5b50600160006101000a81548173ffffffffffffffffffffffffffffffffffffffff021916908373ffffffffffffffffffffffffffffffffffffffff160217905550826003819055508160028190555080600460006101000a81548160ff021916908315150217905550505050505062000446565b611468806200138083390190565b60006200014a620001448462000337565b62000303565b9050828152602081018484840111156200016357600080fd5b620001708482856200039c565b509392505050565b600081519050620001898162000412565b92915050565b600082601f830112620001a157600080fd5b8151620001b384826020860162000133565b91505092915050565b600081519050620001cd816200042c565b92915050565b600080600080600060a08688031215620001ec57600080fd5b600086015167ffffffffffffffff8111156200020757600080fd5b62000215888289016200018f565b955050602086015167ffffffffffffffff8111156200023357600080fd5b62000241888289016200018f565b94505060406200025488828901620001bc565b93505060606200026788828901620001bc565b92505060806200027a8882890162000178565b9150509295509295909350565b600062000294826200036a565b620002a0818562000375565b9350620002b28185602086016200039c565b620002bd8162000401565b840191505092915050565b60006040820190508181036000830152620002e4818562000287565b90508181036020830152620002fa818462000287565b90509392505050565b6000604051905081810181811067ffffffffffffffff821117156200032d576200032c620003d2565b5b8060405250919050565b600067ffffffffffffffff821115620003555762000354620003d2565b5b601f19601f8301169050602081019050919050565b600081519050919050565b600082825260208201905092915050565b60008115159050919050565b6000819050919050565b60005b83811015620003bc5780820151818401526020810190506200039f565b83811115620003cc576000848401525b50505050565b7f4e487b7100000000000000000000000000000000000000000000000000000000600052604160045260246000fd5b6000601f19601f8301169050919050565b6200041d8162000386565b81146200042957600080fd5b50565b620004378162000392565b81146200044357600080fd5b50565b610f2a80620004566000396000f3fe6080604052600436106100865760003560e01c80638da5cb5b116100595780638da5cb5b14610135578063a6f2ae3a14610160578063e4849b321461017e578063fc0c546a146101bb578063fc37987b146101e657610086565b806310fe9ae81461008b57806334fcf437146100b65780636217229b146100df5780636aa633b61461010a575b600080fd5b34801561009757600080fd5b506100a0610211565b6040516100ad9190610bcf565b60405180910390f35b3480156100c257600080fd5b506100dd60048036038101906100d891906108b7565b61023b565b005b3480156100eb57600080fd5b506100f46102f3565b6040516101019190610d4b565b60405180910390f35b34801561011657600080fd5b5061011f6102f9565b60405161012c9190610c73565b60405180910390f35b34801561014157600080fd5b5061014a61030c565b6040516101579190610bcf565b60405180910390f35b610168610330565b6040516101759190610c73565b60405180910390f35b34801561018a57600080fd5b506101a560048036038101906101a091906108b7565b6105a4565b6040516101b29190610c73565b60405180910390f35b3480156101c757600080fd5b506101d0610823565b6040516101dd9190610c8e565b60405180910390f35b3480156101f257600080fd5b506101fb610849565b6040516102089190610d4b565b60405180910390f35b6000600160009054906101000a900473ffffffffffffffffffffffffffffffffffffffff16905090565b60008054906101000a900473ffffffffffffffffffffffffffffffffffffffff1673ffffffffffffffffffffffffffffffffffffffff163373ffffffffffffffffffffffffffffffffffffffff161461029357600080fd5b600081116102d6576040517f08c379a00000000000000000000000000000000000000000000000000000000081526004016102cd90610ccb565b60405180910390fd5b806003819055506003816102ea9190610d8d565b60028190555050565b60025481565b600460009054906101000a900460ff1681565b60008054906101000a900473ffffffffffffffffffffffffffffffffffffffff1681565b600080600354346103419190610d8d565b905060008111816040516020016103589190610d4b565b6040516020818303038152906040526040516020016103779190610bad565b604051602081830303815290604052906103c7576040517f08c379a00000000000000000000000000000000000000000000000000000000081526004016103be9190610ca9565b60405180910390fd5b50600160009054906101000a900473ffffffffffffffffffffffffffffffffffffffff1673ffffffffffffffffffffffffffffffffffffffff166370a08231306040518263ffffffff1660e01b81526004016104239190610bcf565b60206040518083038186803b15801561043b57600080fd5b505afa15801561044f573d6000803e3d6000fd5b505050506040513d601f19601f8201168201806040525081019061047391906108e0565b8111156104b5576040517f08c379a00000000000000000000000000000000000000000000000000000000081526004016104ac90610ceb565b60405180910390fd5b600160009054906101000a900473ffffffffffffffffffffffffffffffffffffffff1673ffffffffffffffffffffffffffffffffffffffff1663a9059cbb33836040518363ffffffff1660e01b8152600401610512929190610c4a565b602060405180830381600087803b15801561052c57600080fd5b505af1158015610540573d6000803e3d6000fd5b505050506040513d601f19601f82011682018060405250810190610564919061088e565b507f4e08ba899977cf7d4c2964bce71c6b9a7ef76ee5166a4c1249a1e08016e33ef1816040516105949190610d4b565b60405180910390a1600191505090565b60008082116105e8576040517f08c379a00000000000000000000000000000000000000000000000000000000081526004016105df90610d2b565b60405180910390fd5b6000600160009054906101000a900473ffffffffffffffffffffffffffffffffffffffff1673ffffffffffffffffffffffffffffffffffffffff1663dd62ed3e33306040518363ffffffff1660e01b8152600401610647929190610bea565b60206040518083038186803b15801561065f57600080fd5b505afa158015610673573d6000803e3d6000fd5b505050506040513d601f19601f8201168201806040525081019061069791906108e0565b9050828110156106dc576040517f08c379a00000000000000000000000000000000000000000000000000000000081526004016106d390610d0b565b60405180910390fd5b600160009054906101000a900473ffffffffffffffffffffffffffffffffffffffff1673ffffffffffffffffffffffffffffffffffffffff166323b872dd3330866040518463ffffffff1660e01b815260040161073b93929190610c13565b602060405180830381600087803b15801561075557600080fd5b505af1158015610769573d6000803e3d6000fd5b505050506040513d601f19601f8201168201806040525081019061078d919061088e565b503373ffffffffffffffffffffffffffffffffffffffff166108fc600254856107b69190610d8d565b9081150290604051600060405180830381858888f193505050501580156107e1573d6000803e3d6000fd5b507f92f64ca637d023f354075a4be751b169c1a8a9ccb6d33cdd0cb3520543995727836040516108119190610d4b565b60405180910390a16001915050919050565b600160009054906101000a900473ffffffffffffffffffffffffffffffffffffffff1681565b60035481565b60008151905061085e81610ec6565b92915050565b60008135905061087381610edd565b92915050565b60008151905061088881610edd565b92915050565b6000602082840312156108a057600080fd5b60006108ae8482850161084f565b91505092915050565b6000602082840312156108c957600080fd5b60006108d784828501610864565b91505092915050565b6000602082840312156108f257600080fd5b600061090084828501610879565b91505092915050565b61091281610de7565b82525050565b61092181610df9565b82525050565b61093081610e2f565b82525050565b600061094182610d66565b61094b8185610d71565b935061095b818560208601610e53565b61096481610eb5565b840191505092915050565b600061097a82610d66565b6109848185610d82565b9350610994818560208601610e53565b80840191505092915050565b60006109ad602f83610d82565b91507f526573657276655b6275795d3a20416d6f756e74206d75737420626520706f7360008301527f73697476652c20616d6f756e743a2000000000000000000000000000000000006020830152602f82019050919050565b6000610a13602d83610d71565b91507f526573657276655b736574526174655d206e65772072617465206d757374206760008301527f726561746572207468616e2030000000000000000000000000000000000000006020830152604082019050919050565b6000610a79603483610d71565b91507f526573657276653a204e6f7420656e6f75676820746f6b656e20746f2070657260008301527f666f726d20746865207472616e73616374696f6e0000000000000000000000006020830152604082019050919050565b6000610adf603f83610d71565b91507f526573657276655b73656c6c5d3a20416c6c6f77616e6365206d75737420657160008301527f75616c206f722067726561746572207468616e2073656c6c20616d6f756e74006020830152604082019050919050565b6000610b45602683610d71565b91507f526573657276655b73656c6c5d3a20416d6f756e74206d75737420626520706f60008301527f73736974766500000000000000000000000000000000000000000000000000006020830152604082019050919050565b610ba781610e25565b82525050565b6000610bb8826109a0565b9150610bc4828461096f565b915081905092915050565b6000602082019050610be46000830184610909565b92915050565b6000604082019050610bff6000830185610909565b610c0c6020830184610909565b9392505050565b6000606082019050610c286000830186610909565b610c356020830185610909565b610c426040830184610b9e565b949350505050565b6000604082019050610c5f6000830185610909565b610c6c6020830184610b9e565b9392505050565b6000602082019050610c886000830184610918565b92915050565b6000602082019050610ca36000830184610927565b92915050565b60006020820190508181036000830152610cc38184610936565b905092915050565b60006020820190508181036000830152610ce481610a06565b9050919050565b60006020820190508181036000830152610d0481610a6c565b9050919050565b60006020820190508181036000830152610d2481610ad2565b9050919050565b60006020820190508181036000830152610d4481610b38565b9050919050565b6000602082019050610d606000830184610b9e565b92915050565b600081519050919050565b600082825260208201905092915050565b600081905092915050565b6000610d9882610e25565b9150610da383610e25565b9250817fffffffffffffffffffffffffffffffffffffffffffffffffffffffffffffffff0483118215151615610ddc57610ddb610e86565b5b828202905092915050565b6000610df282610e05565b9050919050565b60008115159050919050565b600073ffffffffffffffffffffffffffffffffffffffff82169050919050565b6000819050919050565b6000610e3a82610e41565b9050919050565b6000610e4c82610e05565b9050919050565b60005b83811015610e71578082015181840152602081019050610e56565b83811115610e80576000848401525b50505050565b7f4e487b7100000000000000000000000000000000000000000000000000000000600052601160045260246000fd5b6000601f19601f8301169050919050565b610ecf81610df9565b8114610eda57600080fd5b50565b610ee681610e25565b8114610ef157600080fd5b5056fea26469706673582212203a7ab366ff3608ba0b335c5ee363db0fa18d4eb14ee9cf68729d5752182f601c64736f6c634300080000336080604052683635c9adc5dea000006004553480156200001e57600080fd5b5060405162001468380380620014688339818101604052810190620000449190620001e6565b81600090805190602001906200005c929190620000c4565b50806001908051906020019062000075929190620000c4565b50600454600260003373ffffffffffffffffffffffffffffffffffffffff1673ffffffffffffffffffffffffffffffffffffffff1681526020019081526020016000208190555050506200038a565b828054620000d290620002f6565b90600052602060002090601f016020900481019282620000f6576000855562000142565b82601f106200011157805160ff191683800117855562000142565b8280016001018555821562000142579182015b828111156200014157825182559160200191906001019062000124565b5b50905062000151919062000155565b5090565b5b808211156200017057600081600090555060010162000156565b5090565b60006200018b62000185846200028d565b62000259565b905082815260208101848484011115620001a457600080fd5b620001b1848285620002c0565b509392505050565b600082601f830112620001cb57600080fd5b8151620001dd84826020860162000174565b91505092915050565b60008060408385031215620001fa57600080fd5b600083015167ffffffffffffffff8111156200021557600080fd5b6200022385828601620001b9565b925050602083015167ffffffffffffffff8111156200024157600080fd5b6200024f85828601620001b9565b9150509250929050565b6000604051905081810181811067ffffffffffffffff821117156200028357620002826200035b565b5b8060405250919050565b600067ffffffffffffffff821115620002ab57620002aa6200035b565b5b601f19601f8301169050602081019050919050565b60005b83811015620002e0578082015181840152602081019050620002c3565b83811115620002f0576000848401525b50505050565b600060028204905060018216806200030f57607f821691505b602082108114156200032657620003256200032c565b5b50919050565b7f4e487b7100000000000000000000000000000000000000000000000000000000600052602260045260246000fd5b7f4e487b7100000000000000000000000000000000000000000000000000000000600052604160045260246000fd5b6110ce806200039a6000396000f3fe608060405234801561001057600080fd5b50600436106100a95760003560e01c8063313ce56711610071578063313ce5671461017a5780635c6581651461019857806370a08231146101c857806395d89b41146101f8578063a9059cbb14610216578063dd62ed3e14610246576100a9565b806306fdde03146100ae578063095ea7b3146100cc57806318160ddd146100fc57806323b872dd1461011a57806327e235e31461014a575b600080fd5b6100b6610276565b6040516100c39190610de3565b60405180910390f35b6100e660048036038101906100e19190610bf4565b610304565b6040516100f39190610dc8565b60405180910390f35b6101046103f6565b6040516101119190610e65565b60405180910390f35b610134600480360381019061012f9190610ba5565b610400565b6040516101419190610dc8565b60405180910390f35b610164600480360381019061015f9190610b40565b6107d7565b6040516101719190610e65565b60405180910390f35b6101826107ef565b60405161018f9190610e80565b60405180910390f35b6101b260048036038101906101ad9190610b69565b6107f4565b6040516101bf9190610e65565b60405180910390f35b6101e260048036038101906101dd9190610b40565b610819565b6040516101ef9190610e65565b60405180910390f35b610200610862565b60405161020d9190610de3565b60405180910390f35b610230600480360381019061022b9190610bf4565b6108f0565b60405161023d9190610dc8565b60405180910390f35b610260600480360381019061025b9190610b69565b610a8f565b60405161026d9190610e65565b60405180910390f35b6000805461028390610fc9565b80601f01602080910402602001604051908101604052809291908181526020018280546102af90610fc9565b80156102fc5780601f106102d1576101008083540402835291602001916102fc565b820191906000526020600020905b8154815290600101906020018083116102df57829003601f168201915b505050505081565b600081600360003373ffffffffffffffffffffffffffffffffffffffff1673ffffffffffffffffffffffffffffffffffffffff16815260200190815260200160002060008573ffffffffffffffffffffffffffffffffffffffff1673ffffffffffffffffffffffffffffffffffffffff168152602001908152602001600020819055508273ffffffffffffffffffffffffffffffffffffffff163373ffffffffffffffffffffffffffffffffffffffff167f8c5be1e5ebec7d5bd14f71427d1e84f3dd0314c0f7b2291e5b200ac8c7c3b925846040516103e49190610e65565b60405180910390a36001905092915050565b6000600454905090565b6000600260008573ffffffffffffffffffffffffffffffffffffffff1673ffffffffffffffffffffffffffffffffffffffff16815260200190815260200160002054821115610484576040517f08c379a000000000000000000000000000000000000000000000000000000000815260040161047b90610e45565b60405180910390fd5b600360008573ffffffffffffffffffffffffffffffffffffffff1673ffffffffffffffffffffffffffffffffffffffff16815260200190815260200160002060003373ffffffffffffffffffffffffffffffffffffffff1673ffffffffffffffffffffffffffffffffffffffff16815260200190815260200160002054821115610543576040517f08c379a000000000000000000000000000000000000000000000000000000000815260040161053a90610e05565b60405180910390fd5b81600260008673ffffffffffffffffffffffffffffffffffffffff1673ffffffffffffffffffffffffffffffffffffffff1681526020019081526020016000205461058e9190610f0d565b600260008673ffffffffffffffffffffffffffffffffffffffff1673ffffffffffffffffffffffffffffffffffffffff1681526020019081526020016000208190555081600360008673ffffffffffffffffffffffffffffffffffffffff1673ffffffffffffffffffffffffffffffffffffffff16815260200190815260200160002060003373ffffffffffffffffffffffffffffffffffffffff1673ffffffffffffffffffffffffffffffffffffffff168152602001908152602001600020546106599190610f0d565b600360008673ffffffffffffffffffffffffffffffffffffffff1673ffffffffffffffffffffffffffffffffffffffff16815260200190815260200160002060003373ffffffffffffffffffffffffffffffffffffffff1673ffffffffffffffffffffffffffffffffffffffff1681526020019081526020016000208190555081600260008573ffffffffffffffffffffffffffffffffffffffff1673ffffffffffffffffffffffffffffffffffffffff168152602001908152602001600020546107249190610eb7565b600260008573ffffffffffffffffffffffffffffffffffffffff1673ffffffffffffffffffffffffffffffffffffffff168152602001908152602001600020819055508273ffffffffffffffffffffffffffffffffffffffff168473ffffffffffffffffffffffffffffffffffffffff167fddf252ad1be2c89b69c2b068fc378daa952ba7f163c4a11628f55a4df523b3ef846040516107c49190610e65565b60405180910390a3600190509392505050565b60026020528060005260406000206000915090505481565b601281565b6003602052816000526040600020602052806000526040600020600091509150505481565b6000600260008373ffffffffffffffffffffffffffffffffffffffff1673ffffffffffffffffffffffffffffffffffffffff168152602001908152602001600020549050919050565b6001805461086f90610fc9565b80601f016020809104026020016040519081016040528092919081815260200182805461089b90610fc9565b80156108e85780601f106108bd576101008083540402835291602001916108e8565b820191906000526020600020905b8154815290600101906020018083116108cb57829003601f168201915b505050505081565b6000600260003373ffffffffffffffffffffffffffffffffffffffff1673ffffffffffffffffffffffffffffffffffffffff16815260200190815260200160002054821115610974576040517f08c379a000000000000000000000000000000000000000000000000000000000815260040161096b90610e25565b60405180910390fd5b81600260003373ffffffffffffffffffffffffffffffffffffffff1673ffffffffffffffffffffffffffffffffffffffff16815260200190815260200160002060008282546109c39190610f0d565b9250508190555081600260008573ffffffffffffffffffffffffffffffffffffffff1673ffffffffffffffffffffffffffffffffffffffff1681526020019081526020016000206000828254610a199190610eb7565b925050819055508273ffffffffffffffffffffffffffffffffffffffff163373ffffffffffffffffffffffffffffffffffffffff167fddf252ad1be2c89b69c2b068fc378daa952ba7f163c4a11628f55a4df523b3ef84604051610a7d9190610e65565b60405180910390a36001905092915050565b6000600360008473ffffffffffffffffffffffffffffffffffffffff1673ffffffffffffffffffffffffffffffffffffffff16815260200190815260200160002060008373ffffffffffffffffffffffffffffffffffffffff1673ffffffffffffffffffffffffffffffffffffffff16815260200190815260200160002054905092915050565b600081359050610b258161106a565b92915050565b600081359050610b3a81611081565b92915050565b600060208284031215610b5257600080fd5b6000610b6084828501610b16565b91505092915050565b60008060408385031215610b7c57600080fd5b6000610b8a85828601610b16565b9250506020610b9b85828601610b16565b9150509250929050565b600080600060608486031215610bba57600080fd5b6000610bc886828701610b16565b9350506020610bd986828701610b16565b9250506040610bea86828701610b2b565b9150509250925092565b60008060408385031215610c0757600080fd5b6000610c1585828601610b16565b9250506020610c2685828601610b2b565b9150509250929050565b610c3981610f53565b82525050565b6000610c4a82610e9b565b610c548185610ea6565b9350610c64818560208601610f96565b610c6d81611059565b840191505092915050565b6000610c85603583610ea6565b91507f546f74616c20616c6c6f77616e6365206d75737420657175616c206f7220677260008301527f6561746572207468616e2074686520616d6f756e7400000000000000000000006020830152604082019050919050565b6000610ceb603f83610ea6565b91507f416d6f756e74207472616e73666572206d757374206c657373207468616e206f60008301527f7220657175616c20746f207468652063757272656e742062616c616e616365006020830152604082019050919050565b6000610d51603983610ea6565b91507f546f74616c20616d6f756e74206d757374206c657373207468616e206f72206560008301527f7175616c20746f20746865206f776e65722062616c616e6365000000000000006020830152604082019050919050565b610db381610f7f565b82525050565b610dc281610f89565b82525050565b6000602082019050610ddd6000830184610c30565b92915050565b60006020820190508181036000830152610dfd8184610c3f565b905092915050565b60006020820190508181036000830152610e1e81610c78565b9050919050565b60006020820190508181036000830152610e3e81610cde565b9050919050565b60006020820190508181036000830152610e5e81610d44565b9050919050565b6000602082019050610e7a6000830184610daa565b92915050565b6000602082019050610e956000830184610db9565b92915050565b600081519050919050565b600082825260208201905092915050565b6000610ec282610f7f565b9150610ecd83610f7f565b9250827fffffffffffffffffffffffffffffffffffffffffffffffffffffffffffffffff03821115610f0257610f01610ffb565b5b828201905092915050565b6000610f1882610f7f565b9150610f2383610f7f565b925082821015610f3657610f35610ffb565b5b828203905092915050565b6000610f4c82610f5f565b9050919050565b60008115159050919050565b600073ffffffffffffffffffffffffffffffffffffffff82169050919050565b6000819050919050565b600060ff82169050919050565b60005b83811015610fb4578082015181840152602081019050610f99565b83811115610fc3576000848401525b50505050565b60006002820490506001821680610fe157607f821691505b60208210811415610ff557610ff461102a565b5b50919050565b7f4e487b7100000000000000000000000000000000000000000000000000000000600052601160045260246000fd5b7f4e487b7100000000000000000000000000000000000000000000000000000000600052602260045260246000fd5b6000601f19601f8301169050919050565b61107381610f41565b811461107e57600080fd5b50565b61108a81610f7f565b811461109557600080fd5b5056fea2646970667358221220555648eb30e8e0ebbe510bc27b2426011857f20a50190a6cc8091ca1cd07578f64736f6c63430008000033",
  "immutableReferences": {},
  "source": "pragma solidity ^0.8.0;\n\nimport \"./IERC20.sol\";\n\ncontract Reserve {\n    event Bought(uint256 amount);\n    event Sold(uint256 amount);\n    event ReserveLog(uint256 num);\n    event LogString(string str);\n\n    address public owner;\n    SimpleToken public token;\n    uint256 public sellRate;\n    uint256 public buyRate;\n    bool public isEnabled;\n\n    modifier onlyOwner() {\n        require(msg.sender == owner);\n        _;\n    }\n\n    constructor (string memory _name, string memory _symbol, uint256 _buyRate, uint256 _sellRate, bool _tradeEnabled) {\n        owner = msg.sender;\n        token = new SimpleToken(_name, _symbol);\n        buyRate = _buyRate;\n        sellRate = _sellRate;\n        isEnabled = _tradeEnabled;\n    }\n    \n    function buy() payable public returns (bool) {\n        uint256 amount = msg.value * buyRate;\n        require(amount > 0, string(abi.encodePacked(\"Reserve[buy]: Amount must be possitve, amount: \", string(abi.encode(amount)))));\n        require(amount <= token.balanceOf(address(this)), \"Reserve: Not enough token to perform the transaction\");\n        token.transfer(msg.sender, amount);\n        emit Bought(amount);\n        return true;\n    }\n\n    function sell(uint256 amount) public returns (bool) {\n        require(amount > 0, \"Reserve[sell]: Amount must be possitve\");\n        uint256 allowance = token.allowance(msg.sender, address(this)); \n        require(allowance >= amount, \"Reserve[sell]: Allowance must equal or greater than sell amount\");\n        token.transferFrom(msg.sender, address(this), amount);\n        payable(msg.sender).transfer(amount * sellRate); // payble will give back ETH to exchange, then exchange will send back to user;\n        emit Sold(amount);\n        return true;\n    }\n\n    function getTokenAddress() public view returns (address) {\n        return address(token);\n    }\n\n\n    function setRate(uint256 rate) public onlyOwner {\n        require(rate > 0, \"Reserve[setRate] new rate must greater than 0\");\n        buyRate = rate;\n        sellRate = rate*3;\n    }\n\n}",
  "sourcePath": "C:\\Users\\ADMIN\\Dropbox\\My PC (LAPTOP-PBACICC3)\\Desktop\\Project\\contract\\Reserve.sol",
  "compiler": {
    "name": "solc",
    "version": "0.8.0+commit.c7dfd78e.Emscripten.clang"
  },
  "schemaVersion": "3.4.13",
  "updatedAt": "2023-04-25T16:52:42.741Z",
  "devdoc": {
    "kind": "dev",
    "methods": {},
    "version": 1
  },
  "userdoc": {
    "kind": "user",
    "methods": {},
    "version": 1
  }
}