{
  "contractName": "SimpleToken",
  "abi": [
    {
      "inputs": [
        {
          "internalType": "string",
          "name": "_name",
          "type": "string"
        },
        {
          "internalType": "string",
          "name": "_symbol",
          "type": "string"
        }
      ],
      "stateMutability": "nonpayable",
      "type": "constructor"
    },
    {
      "anonymous": false,
      "inputs": [
        {
          "indexed": true,
          "internalType": "address",
          "name": "owner",
          "type": "address"
        },
        {
          "indexed": true,
          "internalType": "address",
          "name": "spender",
          "type": "address"
        },
        {
          "indexed": false,
          "internalType": "uint256",
          "name": "value",
          "type": "uint256"
        }
      ],
      "name": "Approval",
      "type": "event"
    },
    {
      "anonymous": false,
      "inputs": [
        {
          "indexed": false,
          "internalType": "uint256",
          "name": "amount",
          "type": "uint256"
        }
      ],
      "name": "SimpleLog",
      "type": "event"
    },
    {
      "anonymous": false,
      "inputs": [
        {
          "indexed": true,
          "internalType": "address",
          "name": "from",
          "type": "address"
        },
        {
          "indexed": true,
          "internalType": "address",
          "name": "to",
          "type": "address"
        },
        {
          "indexed": false,
          "internalType": "uint256",
          "name": "value",
          "type": "uint256"
        }
      ],
      "name": "Transfer",
      "type": "event"
    },
    {
      "inputs": [
        {
          "internalType": "address",
          "name": "",
          "type": "address"
        },
        {
          "internalType": "address",
          "name": "",
          "type": "address"
        }
      ],
      "name": "allowed",
      "outputs": [
        {
          "internalType": "uint256",
          "name": "",
          "type": "uint256"
        }
      ],
      "stateMutability": "view",
      "type": "function"
    },
    {
      "inputs": [
        {
          "internalType": "address",
          "name": "",
          "type": "address"
        }
      ],
      "name": "balances",
      "outputs": [
        {
          "internalType": "uint256",
          "name": "",
          "type": "uint256"
        }
      ],
      "stateMutability": "view",
      "type": "function"
    },
    {
      "inputs": [],
      "name": "decimals",
      "outputs": [
        {
          "internalType": "uint8",
          "name": "",
          "type": "uint8"
        }
      ],
      "stateMutability": "view",
      "type": "function"
    },
    {
      "inputs": [],
      "name": "name",
      "outputs": [
        {
          "internalType": "string",
          "name": "",
          "type": "string"
        }
      ],
      "stateMutability": "view",
      "type": "function"
    },
    {
      "inputs": [],
      "name": "symbol",
      "outputs": [
        {
          "internalType": "string",
          "name": "",
          "type": "string"
        }
      ],
      "stateMutability": "view",
      "type": "function"
    },
    {
      "inputs": [],
      "name": "totalSupply",
      "outputs": [
        {
          "internalType": "uint256",
          "name": "",
          "type": "uint256"
        }
      ],
      "stateMutability": "view",
      "type": "function"
    },
    {
      "inputs": [
        {
          "internalType": "address",
          "name": "owner",
          "type": "address"
        }
      ],
      "name": "balanceOf",
      "outputs": [
        {
          "internalType": "uint256",
          "name": "",
          "type": "uint256"
        }
      ],
      "stateMutability": "view",
      "type": "function"
    },
    {
      "inputs": [
        {
          "internalType": "address",
          "name": "recipient",
          "type": "address"
        },
        {
          "internalType": "uint256",
          "name": "amount",
          "type": "uint256"
        }
      ],
      "name": "transfer",
      "outputs": [
        {
          "internalType": "bool",
          "name": "",
          "type": "bool"
        }
      ],
      "stateMutability": "nonpayable",
      "type": "function"
    },
    {
      "inputs": [
        {
          "internalType": "address",
          "name": "spender",
          "type": "address"
        },
        {
          "internalType": "uint256",
          "name": "amount",
          "type": "uint256"
        }
      ],
      "name": "approve",
      "outputs": [
        {
          "internalType": "bool",
          "name": "",
          "type": "bool"
        }
      ],
      "stateMutability": "nonpayable",
      "type": "function"
    },
    {
      "inputs": [
        {
          "internalType": "address",
          "name": "owner",
          "type": "address"
        },
        {
          "internalType": "address",
          "name": "spender",
          "type": "address"
        }
      ],
      "name": "allowance",
      "outputs": [
        {
          "internalType": "uint256",
          "name": "",
          "type": "uint256"
        }
      ],
      "stateMutability": "view",
      "type": "function"
    },
    {
      "inputs": [
        {
          "internalType": "address",
          "name": "sender",
          "type": "address"
        },
        {
          "internalType": "address",
          "name": "recipient",
          "type": "address"
        },
        {
          "internalType": "uint256",
          "name": "amount",
          "type": "uint256"
        }
      ],
      "name": "transferFrom",
      "outputs": [
        {
          "internalType": "bool",
          "name": "",
          "type": "bool"
        }
      ],
      "stateMutability": "nonpayable",
      "type": "function"
    }
  ],
  "bytecode": "0x6080604052683635c9adc5dea000006004553480156200001e57600080fd5b5060405162001468380380620014688339818101604052810190620000449190620001e6565b81600090805190602001906200005c929190620000c4565b50806001908051906020019062000075929190620000c4565b50600454600260003373ffffffffffffffffffffffffffffffffffffffff1673ffffffffffffffffffffffffffffffffffffffff1681526020019081526020016000208190555050506200038a565b828054620000d290620002f6565b90600052602060002090601f016020900481019282620000f6576000855562000142565b82601f106200011157805160ff191683800117855562000142565b8280016001018555821562000142579182015b828111156200014157825182559160200191906001019062000124565b5b50905062000151919062000155565b5090565b5b808211156200017057600081600090555060010162000156565b5090565b60006200018b62000185846200028d565b62000259565b905082815260208101848484011115620001a457600080fd5b620001b1848285620002c0565b509392505050565b600082601f830112620001cb57600080fd5b8151620001dd84826020860162000174565b91505092915050565b60008060408385031215620001fa57600080fd5b600083015167ffffffffffffffff8111156200021557600080fd5b6200022385828601620001b9565b925050602083015167ffffffffffffffff8111156200024157600080fd5b6200024f85828601620001b9565b9150509250929050565b6000604051905081810181811067ffffffffffffffff821117156200028357620002826200035b565b5b8060405250919050565b600067ffffffffffffffff821115620002ab57620002aa6200035b565b5b601f19601f8301169050602081019050919050565b60005b83811015620002e0578082015181840152602081019050620002c3565b83811115620002f0576000848401525b50505050565b600060028204905060018216806200030f57607f821691505b602082108114156200032657620003256200032c565b5b50919050565b7f4e487b7100000000000000000000000000000000000000000000000000000000600052602260045260246000fd5b7f4e487b7100000000000000000000000000000000000000000000000000000000600052604160045260246000fd5b6110ce806200039a6000396000f3fe608060405234801561001057600080fd5b50600436106100a95760003560e01c8063313ce56711610071578063313ce5671461017a5780635c6581651461019857806370a08231146101c857806395d89b41146101f8578063a9059cbb14610216578063dd62ed3e14610246576100a9565b806306fdde03146100ae578063095ea7b3146100cc57806318160ddd146100fc57806323b872dd1461011a57806327e235e31461014a575b600080fd5b6100b6610276565b6040516100c39190610de3565b60405180910390f35b6100e660048036038101906100e19190610bf4565b610304565b6040516100f39190610dc8565b60405180910390f35b6101046103f6565b6040516101119190610e65565b60405180910390f35b610134600480360381019061012f9190610ba5565b610400565b6040516101419190610dc8565b60405180910390f35b610164600480360381019061015f9190610b40565b6107d7565b6040516101719190610e65565b60405180910390f35b6101826107ef565b60405161018f9190610e80565b60405180910390f35b6101b260048036038101906101ad9190610b69565b6107f4565b6040516101bf9190610e65565b60405180910390f35b6101e260048036038101906101dd9190610b40565b610819565b6040516101ef9190610e65565b60405180910390f35b610200610862565b60405161020d9190610de3565b60405180910390f35b610230600480360381019061022b9190610bf4565b6108f0565b60405161023d9190610dc8565b60405180910390f35b610260600480360381019061025b9190610b69565b610a8f565b60405161026d9190610e65565b60405180910390f35b6000805461028390610fc9565b80601f01602080910402602001604051908101604052809291908181526020018280546102af90610fc9565b80156102fc5780601f106102d1576101008083540402835291602001916102fc565b820191906000526020600020905b8154815290600101906020018083116102df57829003601f168201915b505050505081565b600081600360003373ffffffffffffffffffffffffffffffffffffffff1673ffffffffffffffffffffffffffffffffffffffff16815260200190815260200160002060008573ffffffffffffffffffffffffffffffffffffffff1673ffffffffffffffffffffffffffffffffffffffff168152602001908152602001600020819055508273ffffffffffffffffffffffffffffffffffffffff163373ffffffffffffffffffffffffffffffffffffffff167f8c5be1e5ebec7d5bd14f71427d1e84f3dd0314c0f7b2291e5b200ac8c7c3b925846040516103e49190610e65565b60405180910390a36001905092915050565b6000600454905090565b6000600260008573ffffffffffffffffffffffffffffffffffffffff1673ffffffffffffffffffffffffffffffffffffffff16815260200190815260200160002054821115610484576040517f08c379a000000000000000000000000000000000000000000000000000000000815260040161047b90610e45565b60405180910390fd5b600360008573ffffffffffffffffffffffffffffffffffffffff1673ffffffffffffffffffffffffffffffffffffffff16815260200190815260200160002060003373ffffffffffffffffffffffffffffffffffffffff1673ffffffffffffffffffffffffffffffffffffffff16815260200190815260200160002054821115610543576040517f08c379a000000000000000000000000000000000000000000000000000000000815260040161053a90610e05565b60405180910390fd5b81600260008673ffffffffffffffffffffffffffffffffffffffff1673ffffffffffffffffffffffffffffffffffffffff1681526020019081526020016000205461058e9190610f0d565b600260008673ffffffffffffffffffffffffffffffffffffffff1673ffffffffffffffffffffffffffffffffffffffff1681526020019081526020016000208190555081600360008673ffffffffffffffffffffffffffffffffffffffff1673ffffffffffffffffffffffffffffffffffffffff16815260200190815260200160002060003373ffffffffffffffffffffffffffffffffffffffff1673ffffffffffffffffffffffffffffffffffffffff168152602001908152602001600020546106599190610f0d565b600360008673ffffffffffffffffffffffffffffffffffffffff1673ffffffffffffffffffffffffffffffffffffffff16815260200190815260200160002060003373ffffffffffffffffffffffffffffffffffffffff1673ffffffffffffffffffffffffffffffffffffffff1681526020019081526020016000208190555081600260008573ffffffffffffffffffffffffffffffffffffffff1673ffffffffffffffffffffffffffffffffffffffff168152602001908152602001600020546107249190610eb7565b600260008573ffffffffffffffffffffffffffffffffffffffff1673ffffffffffffffffffffffffffffffffffffffff168152602001908152602001600020819055508273ffffffffffffffffffffffffffffffffffffffff168473ffffffffffffffffffffffffffffffffffffffff167fddf252ad1be2c89b69c2b068fc378daa952ba7f163c4a11628f55a4df523b3ef846040516107c49190610e65565b60405180910390a3600190509392505050565b60026020528060005260406000206000915090505481565b601281565b6003602052816000526040600020602052806000526040600020600091509150505481565b6000600260008373ffffffffffffffffffffffffffffffffffffffff1673ffffffffffffffffffffffffffffffffffffffff168152602001908152602001600020549050919050565b6001805461086f90610fc9565b80601f016020809104026020016040519081016040528092919081815260200182805461089b90610fc9565b80156108e85780601f106108bd576101008083540402835291602001916108e8565b820191906000526020600020905b8154815290600101906020018083116108cb57829003601f168201915b505050505081565b6000600260003373ffffffffffffffffffffffffffffffffffffffff1673ffffffffffffffffffffffffffffffffffffffff16815260200190815260200160002054821115610974576040517f08c379a000000000000000000000000000000000000000000000000000000000815260040161096b90610e25565b60405180910390fd5b81600260003373ffffffffffffffffffffffffffffffffffffffff1673ffffffffffffffffffffffffffffffffffffffff16815260200190815260200160002060008282546109c39190610f0d565b9250508190555081600260008573ffffffffffffffffffffffffffffffffffffffff1673ffffffffffffffffffffffffffffffffffffffff1681526020019081526020016000206000828254610a199190610eb7565b925050819055508273ffffffffffffffffffffffffffffffffffffffff163373ffffffffffffffffffffffffffffffffffffffff167fddf252ad1be2c89b69c2b068fc378daa952ba7f163c4a11628f55a4df523b3ef84604051610a7d9190610e65565b60405180910390a36001905092915050565b6000600360008473ffffffffffffffffffffffffffffffffffffffff1673ffffffffffffffffffffffffffffffffffffffff16815260200190815260200160002060008373ffffffffffffffffffffffffffffffffffffffff1673ffffffffffffffffffffffffffffffffffffffff16815260200190815260200160002054905092915050565b600081359050610b258161106a565b92915050565b600081359050610b3a81611081565b92915050565b600060208284031215610b5257600080fd5b6000610b6084828501610b16565b91505092915050565b60008060408385031215610b7c57600080fd5b6000610b8a85828601610b16565b9250506020610b9b85828601610b16565b9150509250929050565b600080600060608486031215610bba57600080fd5b6000610bc886828701610b16565b9350506020610bd986828701610b16565b9250506040610bea86828701610b2b565b9150509250925092565b60008060408385031215610c0757600080fd5b6000610c1585828601610b16565b9250506020610c2685828601610b2b565b9150509250929050565b610c3981610f53565b82525050565b6000610c4a82610e9b565b610c548185610ea6565b9350610c64818560208601610f96565b610c6d81611059565b840191505092915050565b6000610c85603583610ea6565b91507f546f74616c20616c6c6f77616e6365206d75737420657175616c206f7220677260008301527f6561746572207468616e2074686520616d6f756e7400000000000000000000006020830152604082019050919050565b6000610ceb603f83610ea6565b91507f416d6f756e74207472616e73666572206d757374206c657373207468616e206f60008301527f7220657175616c20746f207468652063757272656e742062616c616e616365006020830152604082019050919050565b6000610d51603983610ea6565b91507f546f74616c20616d6f756e74206d757374206c657373207468616e206f72206560008301527f7175616c20746f20746865206f776e65722062616c616e6365000000000000006020830152604082019050919050565b610db381610f7f565b82525050565b610dc281610f89565b82525050565b6000602082019050610ddd6000830184610c30565b92915050565b60006020820190508181036000830152610dfd8184610c3f565b905092915050565b60006020820190508181036000830152610e1e81610c78565b9050919050565b60006020820190508181036000830152610e3e81610cde565b9050919050565b60006020820190508181036000830152610e5e81610d44565b9050919050565b6000602082019050610e7a6000830184610daa565b92915050565b6000602082019050610e956000830184610db9565b92915050565b600081519050919050565b600082825260208201905092915050565b6000610ec282610f7f565b9150610ecd83610f7f565b9250827fffffffffffffffffffffffffffffffffffffffffffffffffffffffffffffffff03821115610f0257610f01610ffb565b5b828201905092915050565b6000610f1882610f7f565b9150610f2383610f7f565b925082821015610f3657610f35610ffb565b5b828203905092915050565b6000610f4c82610f5f565b9050919050565b60008115159050919050565b600073ffffffffffffffffffffffffffffffffffffffff82169050919050565b6000819050919050565b600060ff82169050919050565b60005b83811015610fb4578082015181840152602081019050610f99565b83811115610fc3576000848401525b50505050565b60006002820490506001821680610fe157607f821691505b60208210811415610ff557610ff461102a565b5b50919050565b7f4e487b7100000000000000000000000000000000000000000000000000000000600052601160045260246000fd5b7f4e487b7100000000000000000000000000000000000000000000000000000000600052602260045260246000fd5b6000601f19601f8301169050919050565b61107381610f41565b811461107e57600080fd5b50565b61108a81610f7f565b811461109557600080fd5b5056fea2646970667358221220555648eb30e8e0ebbe510bc27b2426011857f20a50190a6cc8091ca1cd07578f64736f6c63430008000033",
  "immutableReferences": {},
  "source": "pragma solidity ^0.8.0;\ninterface IERC20 {\n    function totalSupply() external view returns (uint256);\n    function balanceOf(address account) external view returns (uint256);\n    function allowance(address owner, address spender) external view returns (uint256);\n\n    function transfer(address recipient, uint256 amount) external returns (bool);\n    function approve(address spender, uint256 amount) external returns (bool);\n    function transferFrom(address sender, address recipient, uint256 amount) external returns (bool);\n\n\n    event Transfer(address indexed from, address indexed to, uint256 value);\n    event Approval(address indexed owner, address indexed spender, uint256 value);\n\n}\n\ncontract SimpleToken is IERC20 {\n    string public name;\n    string public symbol;\n    uint8 public constant decimals = 18;\n\n    mapping(address => uint256) public balances;\n    mapping(address => mapping(address => uint256)) public allowed;\n    uint256 totalSupply_ = 1000 ether;\n    event SimpleLog(uint256 amount);\n\n    constructor(string memory _name, string memory _symbol) {\n        name = _name;\n        symbol = _symbol;\n        balances[msg.sender] = totalSupply_;\n    }\n\n    function totalSupply() public override view returns (uint256) {\n        return totalSupply_;\n    }\n\n    function balanceOf(address owner) public override view returns (uint256) {\n        return balances[owner];\n    }\n\n    function transfer(address recipient, uint256 amount) public override returns (bool) {\n        require(amount <= balances[msg.sender], \"Amount transfer must less than or equal to the current balanace\");\n        balances[msg.sender] -= amount;\n        balances[recipient] += amount;\n        emit Transfer(msg.sender, recipient, amount);\n        return true;\n    }\n\n    function approve(address spender, uint256 amount) public override returns (bool) {\n        allowed[msg.sender][spender] = amount;\n        emit Approval(msg.sender, spender, amount);\n        return true;\n    }\n\n    function allowance(address owner, address spender) public override view returns (uint256) {\n        return allowed[owner][spender];\n    }\n\n    function transferFrom(address sender, address recipient, uint256 amount) public override returns (bool) {\n        require(amount <= balances[sender], \"Total amount must less than or equal to the owner balance\");\n        require(amount <= allowed[sender][msg.sender], \"Total allowance must equal or greater than the amount\");\n        balances[sender] = balances[sender] - amount;\n        allowed[sender][msg.sender] = allowed[sender][msg.sender] - amount;\n        balances[recipient] = balances[recipient] + amount;\n        emit Transfer(sender, recipient, amount);\n        return true;\n    }\n}\n\n",
  "sourcePath": "C:\\Users\\ADMIN\\Dropbox\\My PC (LAPTOP-PBACICC3)\\Desktop\\Project\\contract\\IERC20.sol",
  "compiler": {
    "name": "solc",
    "version": "0.8.0+commit.c7dfd78e.Emscripten.clang"
  },
  "schemaVersion": "3.4.13",
  "updatedAt": "2023-04-25T16:52:42.729Z",
  "devdoc": {
    "kind": "dev",
    "methods": {},
    "version": 1
  },
  "userdoc": {
    "kind": "user",
    "methods": {},
    "version": 1
  }
}